{
  "_format": "hh-sol-artifact-1",
  "contractName": "MovieReview",
  "sourceName": "contracts/Moviereview.sol",
  "abi": [
    {
      "anonymous": false,
      "inputs": [
        {
          "indexed": false,
          "internalType": "string",
          "name": "movieId",
          "type": "string"
        },
        {
          "indexed": false,
          "internalType": "string",
          "name": "ipfsHash",
          "type": "string"
        },
        {
          "indexed": false,
          "internalType": "uint8",
          "name": "rating",
          "type": "uint8"
        },
        {
          "indexed": false,
          "internalType": "address",
          "name": "reviewer",
          "type": "address"
        },
        {
          "indexed": false,
          "internalType": "uint256",
          "name": "timestamp",
          "type": "uint256"
        }
      ],
      "name": "ReviewAdded",
      "type": "event"
    },
    {
      "inputs": [
        {
          "internalType": "string",
          "name": "_movieId",
          "type": "string"
        },
        {
          "internalType": "string",
          "name": "_ipfsHash",
          "type": "string"
        },
        {
          "internalType": "uint8",
          "name": "_rating",
          "type": "uint8"
        }
      ],
      "name": "addReview",
      "outputs": [],
      "stateMutability": "nonpayable",
      "type": "function"
    },
    {
      "inputs": [
        {
          "internalType": "string",
          "name": "_movieId",
          "type": "string"
        }
      ],
      "name": "getReviewCount",
      "outputs": [
        {
          "internalType": "uint256",
          "name": "",
          "type": "uint256"
        }
      ],
      "stateMutability": "view",
      "type": "function"
    },
    {
      "inputs": [
        {
          "internalType": "string",
          "name": "_movieId",
          "type": "string"
        }
      ],
      "name": "getReviews",
      "outputs": [
        {
          "components": [
            {
              "internalType": "string",
              "name": "ipfsHash",
              "type": "string"
            },
            {
              "internalType": "uint8",
              "name": "rating",
              "type": "uint8"
            },
            {
              "internalType": "address",
              "name": "reviewer",
              "type": "address"
            },
            {
              "internalType": "uint256",
              "name": "timestamp",
              "type": "uint256"
            }
          ],
          "internalType": "struct MovieReview.Review[]",
          "name": "",
          "type": "tuple[]"
        }
      ],
      "stateMutability": "view",
      "type": "function"
    }
  ],
  "bytecode": "0x6080604052348015600f57600080fd5b50610f088061001f6000396000f3fe608060405234801561001057600080fd5b50600436106100415760003560e01c80632978465d14610046578063588f695d14610076578063cb0a5327146100a6575b600080fd5b610060600480360381019061005b919061069a565b6100c2565b60405161006d91906108fd565b60405180910390f35b610090600480360381019061008b919061069a565b61024e565b60405161009d919061092e565b60405180910390f35b6100c060048036038101906100bb9190610975565b610278565b005b60606000826040516100d49190610a3c565b9081526020016040518091039020805480602002602001604051908101604052809291908181526020016000905b82821015610243578382906000526020600020906003020160405180608001604052908160008201805461013590610a82565b80601f016020809104026020016040519081016040528092919081815260200182805461016190610a82565b80156101ae5780601f10610183576101008083540402835291602001916101ae565b820191906000526020600020905b81548152906001019060200180831161019157829003601f168201915b505050505081526020016001820160009054906101000a900460ff1660ff1660ff1681526020016001820160019054906101000a900473ffffffffffffffffffffffffffffffffffffffff1673ffffffffffffffffffffffffffffffffffffffff1673ffffffffffffffffffffffffffffffffffffffff16815260200160028201548152505081526020019060010190610102565b505050509050919050565b6000808260405161025f9190610a3c565b9081526020016040518091039020805490509050919050565b60018160ff1610158015610290575060058160ff1611155b6102cf576040517f08c379a00000000000000000000000000000000000000000000000000000000081526004016102c690610b10565b60405180910390fd5b6001836040516102df9190610a3c565b908152602001604051809103902060003373ffffffffffffffffffffffffffffffffffffffff1673ffffffffffffffffffffffffffffffffffffffff16815260200190815260200160002060009054906101000a900460ff1615610378576040517f08c379a000000000000000000000000000000000000000000000000000000000815260040161036f90610b7c565b60405180910390fd5b600060405180608001604052808481526020018360ff1681526020013373ffffffffffffffffffffffffffffffffffffffff1681526020014281525090506000846040516103c69190610a3c565b908152602001604051809103902081908060018154018082558091505060019003906000526020600020906003020160009091909190915060008201518160000190816104139190610d48565b5060208201518160010160006101000a81548160ff021916908360ff16021790555060408201518160010160016101000a81548173ffffffffffffffffffffffffffffffffffffffff021916908373ffffffffffffffffffffffffffffffffffffffff160217905550606082015181600201555050600180856040516104999190610a3c565b908152602001604051809103902060003373ffffffffffffffffffffffffffffffffffffffff1673ffffffffffffffffffffffffffffffffffffffff16815260200190815260200160002060006101000a81548160ff0219169083151502179055507f45d75041719f4c6e3873e56c931193db926f229e89b96b9c328a653862c65b478484843342604051610532959493929190610e71565b60405180910390a150505050565b6000604051905090565b600080fd5b600080fd5b600080fd5b600080fd5b6000601f19601f8301169050919050565b7f4e487b7100000000000000000000000000000000000000000000000000000000600052604160045260246000fd5b6105a78261055e565b810181811067ffffffffffffffff821117156105c6576105c561056f565b5b80604052505050565b60006105d9610540565b90506105e5828261059e565b919050565b600067ffffffffffffffff8211156106055761060461056f565b5b61060e8261055e565b9050602081019050919050565b82818337600083830152505050565b600061063d610638846105ea565b6105cf565b90508281526020810184848401111561065957610658610559565b5b61066484828561061b565b509392505050565b600082601f83011261068157610680610554565b5b813561069184826020860161062a565b91505092915050565b6000602082840312156106b0576106af61054a565b5b600082013567ffffffffffffffff8111156106ce576106cd61054f565b5b6106da8482850161066c565b91505092915050565b600081519050919050565b600082825260208201905092915050565b6000819050602082019050919050565b600081519050919050565b600082825260208201905092915050565b60005b8381101561074957808201518184015260208101905061072e565b60008484015250505050565b60006107608261070f565b61076a818561071a565b935061077a81856020860161072b565b6107838161055e565b840191505092915050565b600060ff82169050919050565b6107a48161078e565b82525050565b600073ffffffffffffffffffffffffffffffffffffffff82169050919050565b60006107d5826107aa565b9050919050565b6107e5816107ca565b82525050565b6000819050919050565b6107fe816107eb565b82525050565b600060808301600083015184820360008601526108218282610755565b9150506020830151610836602086018261079b565b50604083015161084960408601826107dc565b50606083015161085c60608601826107f5565b508091505092915050565b60006108738383610804565b905092915050565b6000602082019050919050565b6000610893826106e3565b61089d81856106ee565b9350836020820285016108af856106ff565b8060005b858110156108eb57848403895281516108cc8582610867565b94506108d78361087b565b925060208a019950506001810190506108b3565b50829750879550505050505092915050565b600060208201905081810360008301526109178184610888565b905092915050565b610928816107eb565b82525050565b6000602082019050610943600083018461091f565b92915050565b6109528161078e565b811461095d57600080fd5b50565b60008135905061096f81610949565b92915050565b60008060006060848603121561098e5761098d61054a565b5b600084013567ffffffffffffffff8111156109ac576109ab61054f565b5b6109b88682870161066c565b935050602084013567ffffffffffffffff8111156109d9576109d861054f565b5b6109e58682870161066c565b92505060406109f686828701610960565b9150509250925092565b600081905092915050565b6000610a168261070f565b610a208185610a00565b9350610a3081856020860161072b565b80840191505092915050565b6000610a488284610a0b565b915081905092915050565b7f4e487b7100000000000000000000000000000000000000000000000000000000600052602260045260246000fd5b60006002820490506001821680610a9a57607f821691505b602082108103610aad57610aac610a53565b5b50919050565b600082825260208201905092915050565b7f526174696e67206d757374206265206265747765656e203120616e6420350000600082015250565b6000610afa601e83610ab3565b9150610b0582610ac4565b602082019050919050565b60006020820190508181036000830152610b2981610aed565b9050919050565b7f596f7520616c72656164792072657669657765642074686973206d6f76696500600082015250565b6000610b66601f83610ab3565b9150610b7182610b30565b602082019050919050565b60006020820190508181036000830152610b9581610b59565b9050919050565b60008190508160005260206000209050919050565b60006020601f8301049050919050565b600082821b905092915050565b600060088302610bfe7fffffffffffffffffffffffffffffffffffffffffffffffffffffffffffffffff82610bc1565b610c088683610bc1565b95508019841693508086168417925050509392505050565b6000819050919050565b6000610c45610c40610c3b846107eb565b610c20565b6107eb565b9050919050565b6000819050919050565b610c5f83610c2a565b610c73610c6b82610c4c565b848454610bce565b825550505050565b600090565b610c88610c7b565b610c93818484610c56565b505050565b5b81811015610cb757610cac600082610c80565b600181019050610c99565b5050565b601f821115610cfc57610ccd81610b9c565b610cd684610bb1565b81016020851015610ce5578190505b610cf9610cf185610bb1565b830182610c98565b50505b505050565b600082821c905092915050565b6000610d1f60001984600802610d01565b1980831691505092915050565b6000610d388383610d0e565b9150826002028217905092915050565b610d518261070f565b67ffffffffffffffff811115610d6a57610d6961056f565b5b610d748254610a82565b610d7f828285610cbb565b600060209050601f831160018114610db25760008415610da0578287015190505b610daa8582610d2c565b865550610e12565b601f198416610dc086610b9c565b60005b82811015610de857848901518255600182019150602085019450602081019050610dc3565b86831015610e055784890151610e01601f891682610d0e565b8355505b6001600288020188555050505b505050505050565b6000610e258261070f565b610e2f8185610ab3565b9350610e3f81856020860161072b565b610e488161055e565b840191505092915050565b610e5c8161078e565b82525050565b610e6b816107ca565b82525050565b600060a0820190508181036000830152610e8b8188610e1a565b90508181036020830152610e9f8187610e1a565b9050610eae6040830186610e53565b610ebb6060830185610e62565b610ec8608083018461091f565b969550505050505056fea2646970667358221220a2b58d6b48b93a881479f0461e0f1c0241533fa05216f15e750e36b99e45684c64736f6c634300081c0033",
  "linkReferences": {},
  "deployedLinkReferences": {}
}